:020000040800F2
:100000000050002005440008ED030008EF0300083D
:10001000F1030008F3030008F503000800000000E6
:10002000000000000000000000000000F7030008CE
:10003000F903000800000000FB030008FD030008AE
:100040004D4400084D4400084D4400084D4400084C
:100050004D4400084D4400084D4400084D4400083C
:100060004D4400084D4400084D4400084D4400082C
:100070004D4400084D4400084D4400084D4400081C
:100080004D4400084D4400084D4400080504000894
:10009000150400084D4400084D4400084D44000874
:1000A0004D4400084D4400084D4400084D440008EC
:1000B0004D4400084D4400084D4400084D440008DC
:1000C0004D4400084D4400084D4400084D440008CC
:1000D0004D4400084D4400084D4400084D440008BC
:1000E0004D4400084D4400084D4400080000000045
:1000F0000000000000000000000000000000000000
:0C01000000000000000000005FF808F1A3
:10010C000348044B834202D0034B03B1184770479A
:10011C00D4010020D4010020000000000548064B4B
:10012C001B1AD90F01EBA301491002D0034B03B1E9
:10013C0018477047D4010020D401002000000000B3
:10014C0010B5064C237843B9FFF7DAFF044B13B113
:10015C000448AFF300800123237010BDD4010020AC
:10016C0000000000EC4D000808B5054B1BB105491B
:10017C000548AFF30080BDE80840FFF7CFBF00BFD4
:10018C0000000000D8010020EC4D00082DE9F041E2
:10019C0088B004AD00240494059406940794244B71
:1001AC009A6942F020029A619A6902F02002019247
:1001BC00019A9A6942F004029A619A6902F0040267
:1001CC000292029A9A6942F008029A619B6903F0C2
:1001DC0008030393039B174E01220F21304603F0B3
:1001EC004BF82246F021304603F046F8124F2246D7
:1001FC0040F60341384603F03FF8FF2304934FF0D9
:10020C000108CDF814800224069407942946304640
:10021C0002F040FF40F603430493CDF8148006949B
:10022C0007942946384602F035FF08B0BDE8F08146
:10023C000010024000080140000C014070B5064659
:10024C000C46094D80220021284604F02DF9226825
:10025C003146284604F05CF92268044B1A80044BA2
:10026C0001221A7070BD00BFF4010020F2010020C1
:10027C00F001002072B6FEE700B587B000230293B0
:10028C00039304930593009301931248124A02605E
:10029C00436083600B22C2600361436180238361EE
:1002AC0003F0BEFF80B94FF48053029302A90948B2
:1002BC0003F0EDFF50B9009001906946054804F039
:1002CC0065F828B907B000BDFFF7D4FFFFF7D2FFE0
:1002DC00FFF7D0FFF8020020002C014010B594B0BD
:1002EC000AAC28220021204604F0DEF800230593F6
:1002FC000693079308930993019302930393049332
:10030C0001220A924FF480330B930E920222119227
:10031C0012934FF480131393204602F041FBD0B993
:10032C000F2305930223069307904FF4A0630893C1
:10033C004FF4C0630993012105A802F065FD60B973
:10034C00102301934FF48003049301A802F012FED2
:10035C0028B914B010BDFFF78DFFFFF78BFFFFF727
:10036C0089FF000000B583B002F0E0FAFFF7B6FF9A
:10037C00FFF70CFF00F088F8FFF77EFF114803F041
:10038C00DFFE114B1B78002BFBD0104B1B88002B76
:10039C00F7D00F4C00930F4B0F4A8021204604F0EE
:1003AC0051F80E4B18808021204600F081F98022F4
:1003BC000021204604F078F80023034A1370034A06
:1003CC001380DEE7F8020020F0010020F20100208B
:1003DC0078020020F4010020044E00087402002072
:1003EC00FEE7FEE7FEE7FEE7FEE770477047704763
:1003FC0008B502F0ADFA08BD08B5024801F086F860
:10040C0008BD00BF2412002008B5024801F07EF898
:10041C0008BD00BF2412002082B00E4B9A6942F036
:10042C0001029A619A6902F001020092009ADA695B
:10043C0042F08052DA61DB6903F080530193019B37
:10044C00054A536823F0E06343F00073536002B035
:10045C00704700BF00100240000001400268094BC9
:10046C009A4200D0704782B003F564439A6942F413
:10047C0000629A619B6903F400630193019B02B0D3
:10048C00704700BF002C014008B500220F491048EE
:10049C0002F075FF70B90F490D4802F087FF60B983
:1004AC000D490B4803F0B0FD50B9094802F085FF27
:1004BC0048B908BDFFF7DEFEEDE7FFF7DBFEEFE71F
:1004CC00FFF7D8FEF1E7FFF7D5FEF2E73400002086
:1004DC0040030020400100205000002012230B801C
:1004EC00004870472000002004230B800048704710
:1004FC001C000020002393421DD200B510E00CF12B
:10050C00370C01F813C000014FEA430C0CF1010C3D
:10051C004FF0000E01F80CE00133DBB2934209D22C
:10052C004FEA107CB0F1204FE9D20CF1300C01F8FD
:10053C0013C0E8E700BD70470B4BD3F8E807D3F8BE
:10054C00EC27D3F8F037C01800D1704710B514461B
:10055C0008220649FFF7CEFF0422044B03F11001D9
:10056C002046FFF7C7FF10BD00F0FF1F0200002060
:10057C0008B51A230B80FFF7DFFF014808BD00BF49
:10058C000000002008B50A4628B90549054803F0C3
:10059C008CFB034808BD0249024803F086FBF8E7D0
:1005AC0004060020104E000810B50A46034C2146E4
:1005BC00034803F07AFB204610BD00BF0406002060
:1005CC00284E000808B50A4628B90549054803F025
:1005DC006CFB034808BD0249024803F066FBF8E7D0
:1005EC00040600203C4E000808B50A4628B9054907
:1005FC00054803F05AFB034808BD0249024803F0C2
:10060C0054FBF8E704060020484E00080020704711
:10061C00202811D0212821D1114B1A780A705A7830
:10062C004A709A788A70DA78CA701A790A715A798B
:10063C004A719B79CB7011E00B784A7843EA02231C
:10064C008A7843EA0243CA7843EA0263044A136095
:10065C000B7913714B7953718B799371002070471F
:10066C006000002038B50446FFF7E8FD054D214633
:10067C00284603F0D8FC284603F0F4FC0020207038
:10068C0038BD00BF4003002010B5064C00220649BF
:10069C00204603F0C0FC0549204603F0C4FC0020B2
:1006AC0010BD00BF4003002004080020040C0020F3
:1006BC0008B5084BD3F8B832D3F814320BB101207B
:1006CC0008BD0A460146034803F0A5FC014803F0A7
:1006DC00B0FCF5E740030020022804D005D808B18F
:1006EC0002207047704701207047022070470000BD
:1006FC000268114B9A4200D0704700B583B003F5E5
:10070C00DA33DA6942F40002DA61DB6903F40003DC
:10071C000193019B00221146132002F0FDFD1320D2
:10072C0002F00AFE00221146142002F0F5FD1420FE
:10073C0002F002FE03B000BD005C004008B500F5FD
:10074C002671D0F8D40202F050FE08BD08B501EBBA
:10075C00810300EBC303D3F86421D0F8D40202F078
:10076C0071FE08BD08B501EB810300EBC3035A6AA7
:10077C00D0F8D40202F0ACFE08BD08B5D0F8D40213
:10078C0002F04DFF08BD10B504468379022B09D148
:10079C000121D4F8D40202F02BFFD4F8D40202F0D9
:1007AC00FFFE10BDFFF766FDF2E7000010B5044632
:1007BC00D0F8D40202F01FFFA37A23B1024A1369C6
:1007CC0043F00603136110BD00ED00E008B5D0F84E
:1007DC00D40202F019FF08BD10B504461D48C0F83C
:1007EC00D442C4F8C0021C4B0360082303710223DB
:1007FC00837100238372C372037300F026F930BB3C
:10080C00182300221146D4F8C00201F09AF858239C
:10081C0000228021D4F8C00201F093F8C0230022FA
:10082C008121D4F8C00201F08CF84FF488730022B7
:10083C000121D4F8C00201F084F84FF48073002237
:10084C008221D4F8C00201F07CF8002010BDFFF723
:10085C0011FDD5E724120020005C004008B5D0F84B
:10086C00C00200F069F9FFF737FF08BD08B59446E0
:10087C001A466346D0F8C00200F020FFFFF72CFFA9
:10088C0008BD08B5D0F8C00200F05AFFFFF724FFEE
:10089C0008BD08B5D0F8C00200F0D4FFFFF71CFF6C
:1008AC0008BD08B5D0F8C00201F00CF8FFF714FF32
:1008BC0008BDD0F8C03211F0800F08D101F07F01D3
:1008CC0001EB810103EBC10393F85201704701F076
:1008DC007F0101EB810103EBC103987C704708B5E4
:1008EC00D0F8C00200F0FFFDFFF7F6FE08BD08B51A
:1008FC00D0F8C00200F080FFFFF7EEFE08BD08B58F
:10090C00D0F8C00200F052FFFFF7E6FE08BD08B5B4
:10091C00D0F8C00200F067FF08BD00000048704727
:10092C00041000207047704710B512F4804F46D069
:10093C000468B4F850309BB291F800C003EBCC03C0
:10094C00023304EB4304B4F80044C4F309048B6988
:10095C00A3422AD31B1B8B618B6983B9D0F800E0AF
:10096C003EF82C309BB223F4804323F0700383F4C5
:10097C00005343F4004343F080032EF82C3012F064
:10098C00400F0FD0026891F800C032F82C309BB2A7
:10099C0023F4E04323F0700343F4004343F0C0031B
:1009AC0022F82C3024B9204610BD00238B61D3E7EC
:1009BC0023460A894969006801F07BFFF3E7046864
:1009CC00B4F850309BB291F800C003EBCC03063363
:1009DC0004EB4304B4F80044C4F309048B69A34248
:1009EC0030D31B1B8B618B6983B9D0F800E03EF8C8
:1009FC002C309BB223F4804323F0700383F4005318
:100A0C0043F4004343F080032EF82C3012F0400FD7
:100A1C000FD1026891F800C032F82C309BB223F44D
:100A2C00E04323F0700343F4004343F0C00322F887
:100A3C002C30002CB7D023464A894969006801F054
:100A4C0038FFB0E700238B61CDE738B5002870D0B4
:100A5C00044690F89132ABB1032384F89132002311
:100A6C006371206800F099FF234653F8040B0ECBFA
:100A7C0000F083FF58B1022384F8913201231D4604
:100A8C00284638BD80F89032FFF732FEE4E7014685
:100A9C00206800F08DFF0346A8B9024620799042E9
:100AAC0017D902EB820104EBC101012048740A74CE
:100ABC000020C87408624862013202EB8201C9004E
:100ACC006050D2B2EAE7022384F8913201231D462A
:100ADC00D6E7984217D903EB830204EBC20200213C
:100AEC0082F8511182F8503182F85311C2F860111A
:100AFC00C2F8641103EB830204EBC202C2F8681162
:100B0C000133DBB2E5E7234653F8040B0ECB00F0C0
:100B1C0051FF054628B1022384F8913201231D466A
:100B2C00AEE76073012384F89132206801F0BAFAC1
:100B3C00A6E701231D46A3E790F89032012B13D0B2
:100B4C0010B504464FF0010380F89032006800F0B5
:100B5C001BFF01212046FFF7E6FE206801F0A0FAFA
:100B6C00002084F8900210BD0220704770B5054635
:100B7C000C46164612F0400F00F00D810268B2F8D8
:100B8C0050309BB2097803EBC103023302EB4302F2
:100B9C00B2F80024C2F30902A36993424ED99B1AFE
:100BAC00A361A369002B66D16378002B49D12B6814
:100BBC00B3F8502092B2134403EB0113B3F804249E
:100BCC00C2F30902A3F80424B3F804246FEA4242E6
:100BDC006FEA524292B2A3F804242B686278002A7E
:100BEC003CD1B3F8502092B21344227803EB021399
:100BFC00B3F80C24C2F30902A3F80C24B3F80C24A8
:100C0C006FEA42426FEA524292B2A3F80C24217866
:100C1C002846FFF7A7FD16F4804F41D02A682178AB
:100C2C0032F821309BB223F4E04323F0700343F4F9
:100C3C00404343F0800322F8213031E00023A361CC
:100C4C00AFE7012BC9D12B68B3F8502092B21344F3
:100C5C0003EB01130022A3F80424BEE7012AD6D12A
:100C6C00B3F8502092B21344227803EB0213002203
:100C7C00A3F80C24CBE716F4804F0DD0286830F87D
:100C8C0021309BB223F4E04323F0700343F4404340
:100C9C0043F0800320F8213094F82430012B12D03B
:100CAC002A68217832F821309BB223F4E04323F0F8
:100CBC00400383F0300343F4004343F0800322F8F5
:100CCC002130002070BD636913446361E3691344F0
:100CDC00E361216A2369994224D3C91A216262789B
:100CEC00002A43D12A68B2F8501089B20A442178FC
:100CFC0002EB0112B2F80414C1F30901A2F80414B6
:100D0C003E2B1AD9580913F01F0F00D10138B2F835
:100D1C00041489B2800280B2014341F40041A2F86C
:100D2C00041425E019B984F824101346D7E70023DE
:100D3C0084F8243023620B46D1E74BB9B2F8041483
:100D4C006FEA41416FEA514189B2A2F804140FE0F5
:100D5C00590813F0010F00D00131B2F8040480B22D
:100D6C00890289B20143A2F8041401E0012A06D0D9
:100D7C009BB222896169286801F09CF990E72A6886
:100D8C00B2F8501089B20A44217802EB011299B2E0
:100D9C00A2F80414ECE70268B2F850309BB2097860
:100DAC0003EBC103063302EB4302B2F80024C2F397
:100DBC000902A36993424FD39B1AA361A369002B29
:100DCC0067D16378002B4AD12B68B3F8502092B2CC
:100DDC00134403EB0113B3F80424C2F30902A3F880
:100DEC000424B3F804246FEA42426FEA524292B2EE
:100DFC00A3F804242B686278002A3DD1B3F8502064
:100E0C0092B21344227803EB0213B3F80C24C2F30E
:100E1C000902A3F80C24B3F80C246FEA42426FEADF
:100E2C00524292B2A3F80C2421782846FFF79AFC80
:100E3C0016F4804F7FF434AF2A68217832F82130D1
:100E4C009BB223F4E04323F0700343F4404343F09C
:100E5C00800322F8213023E70023A361AEE7012BA6
:100E6C00C8D12B68B3F8502092B2134403EB011392
:100E7C000022A3F80424BDE7012AD5D1B3F85020F1
:100E8C0092B21344227803EB02130022A3F80C2431
:100E9C00CAE716F4804F0DD1286830F821309BB288
:100EAC0023F4E04323F0700343F4404343F0800306
:100EBC0020F8213094F82430012B7FF4F1AE6369D3
:100ECC0013446361E3691344E361216A2369994222
:100EDC0024D3C91A21622A686178002942D1B2F858
:100EEC00501089B20A44217802EB0112B2F80C14AA
:100EFC00C1F30901A2F80C143E2B1AD9580913F0AE
:100F0C001F0F00D10138B2F80C1489B2800280B2E4
:100F1C00014341F40041A2F80C1425E019B984F8FE
:100F2C0024101346D7E70023236284F824300B46A1
:100F3C00D1E74BB9B2F80C146FEA41416FEA514159
:100F4C0089B2A2F80C140FE0590813F0010F00D06D
:100F5C000131B2F80C0480B2890289B20143A2F8C3
:100F6C000C1401E0012906D09BB2628961692868E2
:100F7C0001F0A0F894E6B2F8501089B20A44217836
:100F8C0002EB011299B2A2F80C14EDE72DE9F04135
:100F9C0005462868B0F8443013F4004F00F0A082E6
:100FAC00B0F84440A3B214F00F0440F0E08013F00A
:100FBC00100F6CD003889AB213F4006F40F09A8033
:100FCC0012F4004FE5D003889BB223F070031B058D
:100FDC001B0D43F0800303802868B0F850309BB29F
:100FEC0095F8502103EBC203063300EB4303B3F82F
:100FFC000034C3F30903C5F86C318BB1D5F8641117
:10100C0071B1B5F8562101F054FCD5F86431D5F81E
:10101C006C211344C5F8643100212846FFF796FB78
:10102C002A68138899B213F4006FB2D101F44051BD
:10103C00B1F5405FADD0B2F850309BB21A44B2F863
:10104C000C34C3F30903A2F80C34D5F860313E2BF1
:10105C0074D9590913F01F0F00D10139B2F80C34AF
:10106C009BB2890289B20B4343F40043A2F80C34BF
:10107C002A6813889BB223F4804323F0700383F413
:10108C00405343F4004343F08003138081E703880B
:10109C009BB223F4E14323F070036FEA43436FEAFE
:1010AC0053439BB203802A68B2F850309BB2297C20
:1010BC0003EBC103023302EB4302B2F80034C3F377
:1010CC000903EB626A6A1A446A6200212846FFF738
:1010DC0049FB6B7B002B3FF45CAFAB6A002B7FF4BE
:1010EC0058AF6B7B2A6843F08003A2F84C30002386
:1010FC006B734EE7B0F850309BB295F8502103EB70
:10110C00C203063300EB4303B3F80034C3F3090303
:10111C00C5F86C31B5F8562105F5267101F0C9FBFF
:10112C002A6813889BB223F070031B051B0D43F038
:10113C00800313802846FFF701FB2AE74BB9B2F86E
:10114C000C346FEA43436FEA53439BB2A2F80C345E
:10115C008EE7590813F0010F00D00131B2F80C34AE
:10116C0098B28B029BB20343A2F80C3480E730F8A0
:10117C0024309EB213F4004F50D116F0800F3FF480
:10118C0008AF04EB8401C900103129442A6832F8F5
:10119C0024309BB223F4E14323F070036FEA434302
:1011AC006FEA53439BB222F8243004EB840305EB23
:1011BC00C303DB7C012B00F0F38016F4807F40F03E
:1011CC008A812868B0F850309BB204EB840205EB9E
:1011DC00C202167C03EBC603023300EB4303B3F8E5
:1011EC000034C3F30903621C02EB820255F832206F
:1011FC009A4240F25381671C07EB8707D21A45F8D5
:10120C003720621C02EB820255F83220002A40F093
:10121C004C8131462846FFF7A5FABAE630F824305F
:10122C009BB223F070031B051B0D43F0800320F8C9
:10123C00243004EB8401C90001F5A87105EB010809
:10124C0004EB840305EBC30393F85C31002B42D110
:10125C002868B0F850309BB204EB840205EBC20254
:10126C0092F8502103EBC203063300EB4303B3F8AF
:10127C000074C7F3090717BB04EB840305EBC30326
:10128C00D3F86C213A44C3F86C21D3F864213A4466
:10129C00C3F86421D3F868313BB104EB840305EB4C
:1012AC00C303D3F860319F4275D204EB840305EB82
:1012BC00C30393F850112846FFF748FA5DE704EB97
:1012CC00840105EBC1013B46B1F85621D1F86411FC
:1012DC0001F0EFFAD0E704EB840305EBC30393F8BA
:1012EC005331022B35D0296804EB840205EBC20282
:1012FC0092F8500131F820309BB223F4E04323F0F4
:10130C00700343F4004343F0C00321F820302868F5
:10131C0092F8502130F8223013F4804F20D0B0F8DE
:10132C0050309BB203EBC203023300EB4303B3F820
:10133C000074C7F30907002F9ED004EB840105EB62
:10134C00C1013B46B1F85821D1F8641101F0B1FA52
:10135C0092E7324641462846FFF7E6FA07468BE706
:10136C00B0F850309BB203EBC203063300EB4303DF
:10137C00B3F80074C7F30907002F3FF47DAF04EBFB
:10138C00840105EBC1013B46B1F85A21D1F8641137
:10139C0001F08FFA70E74146286800F09EFEECE6FB
:1013AC00631C03EB8303DB000022EA5004EB840391
:1013BC0005EBC3031B7F1BB316F0400F3BD004EBB4
:1013CC00840305EBC3035B7C1BBB2B68B3F8502079
:1013DC0092B2134404EB840205EBC202127C03EBC1
:1013EC000213B3F80424C2F30902A3F80424B3F8DB
:1013FC0004246FEA42426FEA524292B2A3F80424E8
:10140C0004EB840405EBC404217C2846FFF7AAF9FD
:10141C00BFE5012BF4D12B68B3F8502092B21344E2
:10142C0004EB840205EBC202127C03EB02130022D4
:10143C00A3F80424E4E72B6804EB840205EBC20256
:10144C00527CD2B9B3F8502092B2134404EB84020C
:10145C0005EBC202127C03EB0213B3F80C24C2F3AB
:10146C000902A3F80C24B3F80C246FEA42426FEA89
:10147C00524292B2A3F80C24C2E7012AC0D1B3F8AD
:10148C00502092B2134404EB840205EBC202127C8E
:10149C0003EB02130022A3F80C24B1E7621C02EB4D
:1014AC008202D2000027AF50ABE604EB840205EBBE
:1014BC00C202566A1E445662013404EB840205EBE8
:1014CC00C202526804EB840405EBC4041344636049
:1014DC0000F003FE5DE532462846FFF747FB58E572
:1014EC000020BDE8F08190F89032012B0CD010B5A3
:1014FC000446012380F890324173006800F0CAFD65
:10150C00002084F8900210BD0220704710B584B002
:10151C000446006800F0C8FD10F4004F20D110F410
:10152C00806F21D110F4804F2FD110F4005F37D190
:10153C0010F4805F3ED110F4006F40F0878010F4FF
:10154C00007F40F0AE8010F4807F27D02268B2F884
:10155C0044309BB223F480739BB2A2F844301DE05C
:10156C002046FFF713FD19E02268B2F844309BB215
:10157C0023F480639BB2A2F844302046FFF703F9B2
:10158C0000212046FFF7AFFF08E02268B2F8443094
:10159C009BB223F480439BB2A2F8443004B010BD3C
:1015AC002268B2F844309BB223F400539BB2A2F8E9
:1015BC004430F3E72268B2F840309BB223F00403C6
:1015CC009BB2A2F840302268B2F840309BB223F0B4
:1015DC0008039BB2A2F840302046FFF7F7F82268C8
:1015EC00B2F844309BB223F480539BB2A2F844303F
:1015FC00D4E7226832F8231004AA02EB430222F843
:10160C00101C0133DBB2072BF3D92268B2F840303F
:10161C009BB243F00103A2F840302268B2F840308C
:10162C009BB223F001039BB2A2F840302368B3F8BD
:10163C00442012F4806FF9D0B3F8442092B222F413
:10164C00806292B2A3F8442000230BE00023DAE777
:10165C00226804A901EB430131F8101C22F8231075
:10166C000133DBB2072BF3D92268B2F840309BB2BE
:10167C0043F00803A2F840302268B2F844309BB221
:10168C0023F400639BB2A2F844302268B2F84030D5
:10169C009BB243F00403A2F840302046FFF786F8D3
:1016AC007CE72268B2F844309BB223F400739BB2FF
:1016BC00A2F844302046FFF760F86FE710B50446F7
:1016CC00084611F0800F26D101F0070C0CEB8C0EA4
:1016DC004FEACE0E0EF5A87E04EB0E010CEB8C0C33
:1016EC0004EBCC0C4FF0000E8CF851E100F007002D
:1016FC0008700A61CB70022B1DD094F89032012B2C
:10170C001CD0012384F89032206800F064F900208A
:10171C0084F8900210BD01F0070C0CEB8C01C90091
:10172C00103121440CEB8C0C04EBCC0C4FF0010E63
:10173C008CF811E0DAE700230B71DEE70220E9E711
:10174C0010B504460A4611F0800F1FD101F00700B6
:10175C0000EB8003DB0003F5A873E11800EB8000BD
:10176C0004EBC000002380F8513102F007020A702C
:10177C0094F89032012B17D0012384F89032206812
:10178C0000F027FB002084F8900210BD01F0070048
:10179C0000EB8003DB001033E11800EB800004EB5E
:1017AC00C00001234374E0E70220EEE710B501F01E
:1017BC00070C0CEB8C01C90001F5A8710CEB8C0E1D
:1017CC0000EBCE0ECEF86421CEF868310024CEF8B2
:1017DC006C418EF851418EF850C10144006800F004
:1017EC007CFC204610BD01F0070101EB810100EBF0
:1017FC00C100D0F86C01704738B501F0070C0CEB48
:10180C008C01C90010310CEB8C0E00EBCE0ECEF817
:10181C0024200CF1010202EB820440F83430012543
:10182C008EF83450CEF8303000EBC40200245460F3
:10183C008EF811508EF810C00144006800F04DFC79
:10184C00204638BD38B501F007050279AA4235D3D8
:10185C0004460B4611F0800F1ED101EB8101C9002B
:10186C0001F5A871014403EB830300EBC3030022D1
:10187C0083F8512101238B700D7094F89032012B59
:10188C001ED0012384F89032206800F08DFB7DB1CE
:10189C00002084F8900238BD05EB8501C900103199
:1018AC00014405EB850300EBC30301225A74E1E705
:1018BC0004F52671206800F0FBFBE9E70120EAE75C
:1018CC000220E8E70B46017903F00F02914234D372
:1018DC0010B5044613F0800F21D103F0070202EB80
:1018EC008201C90001F5A871014402EB820200EBF0
:1018FC00C202002082F8510100228A7003F0070313
:10190C000B7094F89032012B19D0012384F890328B
:10191C00206800F06EFB002084F8900210BD03F0EC
:10192C00070202EB8201C9001031014402EB820272
:10193C0000EBC20201205074DEE701207047022048
:10194C00ECE711F0800F0BD001F0070101EB8101E6
:10195C00C9001031084452B90273C380002070478B
:10196C0001EB8101C90001F5A8710844F3E70122DC
:10197C00027303811B0C4381F0E784B004A800E9D7
:10198C000E00002004B0704703460020A3F844006A
:10199C004FF43F42A3F840207047B0F840309BB260
:1019AC0023F47C535B045B0CA0F8403000207047A0
:1019BC000020704784B0844604A800E90E0001237F
:1019CC00ACF840300020ACF84000ACF84400ACF867
:1019DC00500004B0704700B5034691F800C030F8D1
:1019EC002C2092B222F4EC4222F0700292B2C8780F
:1019FC00022867D008D878B1012803D142F480625C
:101A0C0000200BE0012009E0032803D142F4C0625E
:101A1C00002003E0012001E042F4007248F2800E45
:101A2C0042EA0E0223F82C2091F800C033F82C2047
:101A3C0092B222F4E04222F0700242EA0C0242EA34
:101A4C000E0223F82C200A7B002A40F0DC804A7816
:101A5C00002A48D0B3F8502092B21A4491F800C032
:101A6C0002EB0C12B1F806C04FEA5C0C4FEA4C0CBE
:101A7C00A2F800C491F800C033F82C2012F0400FEB
:101A8C000CD033F82C2092B222F4E04222F07002F7
:101A9C0042F4004242F0C00223F82C20CA78012AFA
:101AAC0012D0097833F8212092B222F4E04222F0CD
:101ABC00400282F0200242F4004242F0800223F8FD
:101ACC0021201AE10020A9E7097833F8212092B2ED
:101ADC0022F4E04222F0400242F4004242F0800242
:101AEC0023F8212009E1B3F8502092B21A4491F85E
:101AFC0000C002EB0C12B1F806C04FEA5C0C4FEAC6
:101B0C004C0CA2F808C4B3F8502092B21A4491F8C5
:101B1C0000C002EB0C12B2F80CC4CCF3090CA2F806
:101B2C000CC4D1F810C0BCF13E0F3AD94FEA5C1E80
:101B3C001CF01F0F01D10EF1FF3EB2F80CC41FFABE
:101B4C008CFC4FEA8E2E1FFA8EFE4CEA0E0C4CF4D7
:101B5C00004CA2F80CC491F800C033F82C2012F4FD
:101B6C00804F0CD033F82C2092B222F4E04222F0B9
:101B7C00700242F4404242F0800223F82C20097893
:101B8C0089BB33F8212092B222F4804222F07002F9
:101B9C0082F4405242F4004242F0800223F82120A9
:101BAC00ABE0BCF1000F0AD1B2F80CC46FEA4C4C9C
:101BBC006FEA5C4C1FFA8CFCA2F80CC4CBE74FEA22
:101BCC005C0E1CF0010F01D00EF1010EB2F80CC42A
:101BDC001FFA8CFC4FEA8E2E1FFA8EFE4CEA0E0C6E
:101BEC00A2F80CC4B7E733F8212092B222F4804259
:101BFC0022F0700282F4005242F4004242F0800261
:101C0C0023F8212079E0CA78022A77D091F800C015
:101C1C0033F82C2092B222F4E24222F0700242F409
:101C2C00004242F0800223F82C20B3F8502092B2EC
:101C3C001A4491F800C002EB0C12B1F808C04FEA3C
:101C4C005C0C4FEA4C0CA2F800C4B3F8502092B2D2
:101C5C001A4491F800C002EB0C12B1F80AC04FEA1A
:101C6C005C0C4FEA4C0CA2F808C44A78002A55D1F7
:101C7C0091F800C033F82C2012F4804F0CD033F8BC
:101C8C002C2092B222F4E04222F0700242F4404244
:101C9C0042F0800223F82C2091F800C033F82C205D
:101CAC0012F0400F0CD033F82C2092B222F4E04208
:101CBC0022F0700242F4004242F0C00223F82C20C1
:101CCC0091F800E033F82E2092B222F4804222F0F8
:101CDC00700282F4405248F2800C42EA0C0223F863
:101CEC002E20097833F8212092B222F4E04222F01F
:101CFC00400242EA0C0223F8212000BD91F800C0FA
:101D0C0033F82C2092B222F4E04222F0700242F41A
:101D1C00014242F0800223F82C2086E791F800C0A3
:101D2C0033F82C2012F4804F0CD033F82C2092B2C4
:101D3C0022F4E04222F0700242F4404242F080026F
:101D4C0023F82C2091F800C033F82C2012F0400F0F
:101D5C000CD033F82C2092B222F4E04222F0700224
:101D6C0042F4004242F0C00223F82C20CA78012A27
:101D7C001FD091F800C033F82C2092B222F4E0422C
:101D8C0022F0400282F0200242F4004242F0800233
:101D9C0023F82C20097833F8212092B222F48042C7
:101DAC0022F0700242F4004242F0800223F821201B
:101DBC00A3E791F800C033F82C2092B222F4E04251
:101DCC0022F0400242F4004242F0800223F82C2020
:101DDC00E0E70B7B002B46D14B7813B30A7830F835
:101DEC00223013F0400F0CD030F822309BB223F489
:101DFC00E04323F0700343F4004343F0C00320F8A6
:101E0C0022300A7830F822309BB223F4E04323F0DE
:101E1C00400343F4004343F0800320F822300020B9
:101E2C0070470A7830F8223013F4804F0CD030F819
:101E3C0022309BB223F4E04323F0700343F440437D
:101E4C0043F0800320F822300A7830F822309BB21D
:101E5C0023F4804323F0700343F4004343F08003E6
:101E6C0020F82230DBE74B78002B4ED10A7830F883
:101E7C00223013F4804F0CD030F822309BB223F474
:101E8C00E04323F0700343F4404343F0800320F815
:101E9C0022300A7830F8223013F0400F0CD030F892
:101EAC0022309BB223F4E04323F0700343F400434D
:101EBC0043F0C00320F822300A7830F822309BB26D
:101ECC0023F4E04323F0700343F4004343F0C003D6
:101EDC0020F822300A7830F822309BB223F4804369
:101EEC0023F0700348F2800C43EA0C0320F82230F4
:101EFC000A7830F822309BB223F4E04323F04003FD
:101F0C0043EA0C0320F8223089E70A7830F82230B3
:101F1C0013F4804F0CD030F822309BB223F4E04302
:101F2C0023F0700343F4404343F0800320F8223045
:101F3C000A7830F8223013F0400F0CD030F82230F1
:101F4C009BB223F4E04323F0700343F4004343F0CB
:101F5C00C00320F822300A7830F822309BB223F4E8
:101F6C00E04323F0700343F4404343F0800320F834
:101F7C0022300A7830F822309BB223F4E04323F06D
:101F8C00400348F2800C43EA0C0320F822300A7814
:101F9C0030F822309BB223F4804323F0700343EAE1
:101FAC000C0320F822303AE74B788BB10A7830F8E2
:101FBC0022309BB223F4E04323F0400383F0100360
:101FCC0043F4004343F0800320F822300020704794
:101FDC000A7830F822309BB223F4804323F070034C
:101FEC0083F4805343F4004343F0800320F8223001
:101FFC00ECE70B7B002B4BD14B7833B30A7830F8E2
:10200C00223013F0400F0CD030F822309BB223F466
:10201C00E04323F0700343F4004343F0C00320F883
:10202C002230CB78012B33D00A7830F822309BB297
:10203C0023F4E04323F0400383F0200343F40043F4
:10204C0043F0800320F8223022E00A7830F8223066
:10205C0013F4804F0CD030F822309BB223F4E043C1
:10206C0023F0700343F4404343F0800320F8223004
:10207C000A7830F822309BB223F4804323F07003AB
:10208C0083F4405343F4004343F0800320F82230A0
:10209C000020704711B98023A0F84C300020704705
:1020AC000020704700207047B0F8440080B27047A1
:1020BC000020704701335B0800EB420000F58060A4
:1020CC0008E00A7891F801C042EA0C2220F8042BAF
:1020DC000231013B002BF4D1704770B505460C461C
:1020EC004A78012A3BD00B7B002B40F0A7828B69EE
:1020FC000A69934240F285829B1A8B61B5F8503085
:10210C009BB22B44217803EB0113B3F80C14C1F3ED
:10211C000901A3F80C143E2A40F27782510912F0FF
:10212C001F0F00D10139B3F80C2492B2890289B285
:10213C000A4342F40042A3F80C24227835F82230EA
:10214C009BB223F4804323F0700383F4405343F495
:10215C00004343F0800325F82230002070BD8B69CA
:10216C001E4609698B4200D90E46237B73B3E37874
:10217C00022B4DD0236A9B1B2362217835F821302A
:10218C0013F0400F00F0F581002A40F0E281B5F821
:10219C0050309BB22B4403EB0113B3F80C24C2F365
:1021AC000902A3F80C243E2E40F2BA81710916F0F4
:1021BC001F0F00D10139B3F80C2492B2890289B2F5
:1021CC000A4342F40042A3F80C24CBE1B6B23346E6
:1021DC00E28861692846FFF76DFFB5F850309BB275
:1021EC002B44227803EB0213A3F80464227835F80D
:1021FC0022309BB223F4E04323F0400383F03003FE
:10220C0043F4004343F0800325F822300020A5E777
:10221C00236A994280F06681227835F822309BB28D
:10222C0023F4E04323F0700343F4014343F08003B1
:10223C0025F82230236A9B1B2362227835F8223042
:10224C0013F0400F00F0A7806378B3BBB5F85030A3
:10225C009BB22B4403EB0213B3F80C24C2F3090218
:10226C00A3F80C243E2E0FD9710916F01F0F00D1C4
:10227C000139B3F80C2492B2890289B20A4342F4B0
:10228C000042A3F80C241AE04EB9B3F80C246FEA00
:10229C0042426FEA524292B2A3F80C240FE0720849
:1022AC0016F0010F00D00132B3F80C1489B292026F
:1022BC0092B20A43A3F80C2401E0012B30D0B3B244
:1022CC00628961692846FFF7F5FE636933446361EF
:1022DC00236A226993422DD99B1B23626378002BBE
:1022EC0045D1B5F850309BB22B44227803EB021346
:1022FC00B3F80424C2F30902A3F804243E2E1DD91A
:10230C00710916F01F0F00D10139B3F8042492B2F1
:10231C00890289B20A4342F40042A3F8042428E05B
:10232C00B5F850309BB22B4403EB0213B2B2A3F8B6
:10233C000C24C4E7002222621E46CFE74EB9B3F844
:10234C0004246FEA42426FEA524292B2A3F8042488
:10235C000FE0720816F0010F00D00132B3F804142C
:10236C0089B2920292B20A43A3F8042401E0012B31
:10237C0006D0B3B2228961692846FFF79BFE35E788
:10238C00B5F850309BB22B44227803EB0213B2B257
:10239C00A3F80424EDE76378B3BBB5F850309BB2D7
:1023AC002B4403EB0213B3F80424C2F30902A3F881
:1023BC0004243E2E0FD9710916F01F0F00D10139DC
:1023CC00B3F8042492B2890289B20A4342F400425F
:1023DC00A3F804241AE04EB9B3F804246FEA42427D
:1023EC006FEA524292B2A3F804240FE0720816F07E
:1023FC00010F00D00132B3F8041489B2920292B2E8
:10240C000A43A3F8042401E0012B30D0B3B2228993
:10241C0061692846FFF74EFE636933446361236AA2
:10242C00226993422DD99B1B23626378002B45D1E3
:10243C00B5F850309BB22B44227803EB0213B3F85F
:10244C000C24C2F30902A3F80C243E2E1DD97109E9
:10245C0016F01F0F00D10139B3F80C2492B2890287
:10246C0089B20A4342F40042A3F80C2428E0B5F8E0
:10247C0050309BB22B4403EB0213B2B2A3F80424EA
:10248C00C4E7002222621E46CFE74EB9B3F80C24F3
:10249C006FEA42426FEA524292B2A3F80C240FE068
:1024AC00720816F0010F00D00132B3F80C1489B287
:1024BC00920292B20A43A3F80C2401E0012B06D03D
:1024CC00B3B2628961692846FFF7F4FD8EE6B5F870
:1024DC0050309BB22B44227803EB0213B2B2A3F818
:1024EC000C24EDE7217835F8212092B222F4E24257
:1024FC0022F0700242F4004242F0800225F82120C2
:10250C00B5F8502092B22A44217802EB01129BB20A
:10251C00A2F80434228961692846FFF7CBFD65E6F1
:10252C004EB9B3F80C246FEA42426FEA524292B2AF
:10253C00A3F80C2416E0720816F0010F00D001323B
:10254C00B3F80C1489B2920292B20A43A3F80C2489
:10255C0008E0B5F850309BB22B4403EB0113B2B238
:10256C00A3F80C24B3B2628961692846FFF7A2FD77
:10257C003CE6B2BBB5F850309BB22B4403EB0113D5
:10258C00B3F80424C2F30902A3F804243E2E0FD995
:10259C00710916F01F0F00D10139B3F8042492B25F
:1025AC00890289B20A4342F40042A3F8042421E0D0
:1025BC004EB9B3F804246FEA42426FEA524292B227
:1025CC00A3F8042416E0720816F0010F00D00132B3
:1025DC00B3F8041489B2920292B20A43A3F8042409
:1025EC0008E0B5F850309BB22B4403EB0113B2B2A8
:1025FC00A3F80424B3B2228961692846FFF75AFD77
:10260C00F4E500228A611A4678E54AB9B3F80C243D
:10261C006FEA42426FEA524292B2A3F80C248CE564
:10262C00510812F0010F00D00131B3F80C2492B212
:10263C00890289B20A43A3F80C247EE5CB78022BDD
:10264C004DD0012B40F0338189692369994240F2C6
:10265C00EA80C91AA161F2B9B5F8502092B22A44A5
:10266C00217802EB0112B2F80414C1F30901A2F8AB
:10267C0004143E2B40F2DB80580913F01F0F00D1DD
:10268C000138B2F8041489B2800280B2014341F4DB
:10269C000041A2F804146278002A40F0FA80B5F8E0
:1026AC00502092B22A44217802EB0112B2F80C1499
:1026BC00C1F30901A2F80C143E2B40F2D180590948
:1026CC0013F01F0F00D10139B2F80C349BB2890200
:1026DC0089B20B4343F40043A2F80C342DE5F2B954
:1026EC00B0F850309BB203440A7803EB0213B3F8F2
:1026FC000424C2F30902A3F804240A693E2A31D93E
:10270C00510912F01F0F00D10139B3F8042492B211
:10271C00890289B20A4342F40042A3F80424637884
:10272C00002B51D1B5F850309BB22B44227803EBDF
:10273C000213B3F80C24C2F30902A3F80C24226987
:10274C003E2A28D9510912F01F0F00D10139B3F8D4
:10275C000C2492B2890289B20A4342F40042A3F8D3
:10276C000C2433E04AB9B3F804246FEA42426FEA0E
:10277C00524292B2A3F80424D1E7510812F0010F8F
:10278C0000D00131B3F8042490B28A0292B2024311
:10279C00A3F80424C3E74AB9B3F80C246FEA424205
:1027AC006FEA524292B2A3F80C240FE0510812F0D7
:1027BC00010F00D00131B3F80C2490B28A0292B20E
:1027CC000243A3F80C2401E0012B1CD0E369002B7D
:1027DC003FF4B3AC227835F8223099B213F4804F21
:1027EC001CD011F0400F3FF4A8AC35F822309BB24E
:1027FC0023F4E04323F0700343F4004343F0C0039D
:10280C0025F8223099E4B5F850309BB22B4422784D
:10281C0003EB0213228AA3F80C24D7E711F0400F24
:10282C007FF48BACE1E70023A3610B4613E74BB9B4
:10283C00B2F804146FEA41416FEA514189B2A2F82F
:10284C00041428E7590813F0010F00D00131B2F835
:10285C00040480B2890289B20143A2F804141AE775
:10286C004BB9B2F80C346FEA43436FEA53439BB253
:10287C00A2F80C3461E4590813F0010F00D00131B7
:10288C00B2F80C3498B28B029BB20343A2F80C340E
:10289C0053E4012A7FF451ACB5F8502092B22A448B
:1028AC00217802EB01129BB2A2F80C3445E4012012
:1028BC0054E49C465B0800EB420000F5806007E0A6
:1028CC0030F8042B0A70C2F307224A700231013B24
:1028DC00002BF5D11CF0010F01D003880B70704751
:1028EC0010B504460E4B18680E4B1A784FF47A73D9
:1028FC00B3FBF2F3B0FBF3F000F02CFD68B90F2C36
:10290C0001D901200AE0024621464FF0FF3000F0C9
:10291C0003FD054B1C60002000E0012010BD00BF32
:10292C0070000020680000206C00002008B5074AE9
:10293C00136843F010031360032000F0DBFC0F203E
:10294C00FFF7CEFFFDF768FD002008BD0020024018
:10295C00034A1168034B1B780B441360704700BF8C
:10296C00FC14002068000020014B1868704700BF61
:10297C00FC14002082B0084B1B68084AA2FB0323FE
:10298C005B0A00FB03F3019300BF019B5A1E0192EB
:10299C00002BF9D102B0704770000020D34D6210AB
:1029AC00002800F0F38170B582B00446036813F080
:1029BC00010F2CD09A4B5B6803F00C03042B1DD039
:1029CC00974B5B6803F00C03082B12D06368B3F5CC
:1029DC00803F41D0002B55D103F1804303F50433E4
:1029EC001A6822F480321A601A6822F480221A6063
:1029FC0037E08B4B5B6813F4803FE7D0884B1B6848
:102A0C0013F4003F03D06368002B00F0C1812368EE
:102A1C0013F0020F75D0824B5B6813F00C0F5FD074
:102A2C007F4B5B6803F00C03082B54D02369002BFD
:102A3C0000F08A807B4B01221A60FFF795FF054658
:102A4C00774B1B6813F0020F75D1FFF78DFF401BFE
:102A5C000228F5D90320A0E1714A136843F48033AE
:102A6C001360636843B3FFF77FFF05466C4B1B682D
:102A7C0013F4003FCBD1FFF777FF401B6428F5D947
:102A8C0003208AE1B3F5A02F09D0654B1A6822F414
:102A9C0080321A601A6822F480221A60E1E703F18E
:102AAC008043A3F53C331A6842F480221A601A68FA
:102ABC0042F480321A60D4E7FFF756FF0546584BB4
:102ACC001B6813F4003FA2D0FFF74EFF401B642895
:102ADC00F5D9032061E1524B5B6813F4803FA5D11B
:102AEC004F4B1B6813F0020F03D02369012B40F0EE
:102AFC0051814B4A136823F0F803616943EAC1031F
:102B0C001360236813F0080F33D0A369002B5DD03A
:102B1C00444B0122C3F88024FFF726FF0546404BA7
:102B2C005B6A13F0020F21D1FFF71EFF401B022836
:102B3C00F5D9032031E13A4A136823F0F8036169AF
:102B4C0043EAC1031360DCE7364B00221A60FFF73F
:102B5C000BFF0546324B1B6813F0020FD1D0FFF769
:102B6C0003FF401B0228F5D9032016E10120FFF7D3
:102B7C0001FF236813F0040F00F09880284BDB69E9
:102B8C0013F0805F35D1264BDA6942F08052DA615E
:102B9C00DB6903F080530193019B01231E46224BFA
:102BAC001B6813F4807F27D0E368012B3ED0002BE9
:102BBC0054D103F1804303F504331A6A22F0010265
:102BCC001A621A6A22F004021A6234E0154B0022CF
:102BDC00C3F88024FFF7C8FE0546114B5B6A13F05F
:102BEC00020FC6D0FFF7C0FE401B0228F5D9032008
:102BFC00D3E000231E46D2E70B4A136843F48073DC
:102C0C001360FFF7B1FE0546074B1B6813F4807F7A
:102C1C00CAD1FFF7A9FE401B6428F5D90320BCE0FC
:102C2C000010024000004242007000405F4A136AEC
:102C3C0043F001031362E36833B3FFF795FE0546D7
:102C4C005A4B1B6A13F0020F2FD1FFF78DFE401B5E
:102C5C0041F288339842F3D903209EE0052B09D02A
:102C6C00524B1A6A22F001021A621A6A22F004020A
:102C7C001A62E0E74D4B1A6A42F004021A621A6AB1
:102C8C0042F001021A62D6E7FFF76EFE0546474B8B
:102C9C001B6A13F0020F08D0FFF766FE401B41F2CF
:102CAC0088339842F3D9032077E0E6B9E369002B27
:102CBC0072D03E4A526802F00C02082A56D0022BFF
:102CCC0017D03B4B00221A66FFF74EFE0446374BDB
:102CDC001B6813F0007F47D0FFF746FE001B02284D
:102CEC00F5D9032059E0314AD36923F08053D361DD
:102CFC00DCE72F4B00221A66FFF736FE05462B4BFE
:102D0C001B6813F0007F06D0FFF72EFE401B022835
:102D1C00F5D9032041E0236AB3F5803F1AD023494B
:102D2C004B6823F47413226A606A024313434B60AA
:102D3C001F4B01221A66FFF717FE04461B4B1B683C
:102D4C0013F0007F0ED1FFF70FFE001B0228F5D900
:102D5C00032022E0154A536823F40033A1680B4387
:102D6C005360DCE7002018E0002016E0012B16D0A1
:102D7C000E4B5B6803F48031226A914211D103F44B
:102D8C007013626A93420ED1002006E00120704756
:102D9C00012002E0012000E0184602B070BD0120C5
:102DAC00FBE70120F9E70120F7E700BF0010024024
:102DBC00000042420F4B5B6803F00C02082A01D062
:102DCC000D487047C3F383420C49885C13F4803F71
:102DDC000BD0084B5B68C3F34043094AD35C064AEB
:102DEC0002FB00F0B0FBF3F07047064B03FB00F066
:102DFC00704700BF0010024000127A005C4E0008C1
:102E0C00584E000800093D00002800F0A08070B565
:102E1C000D460446524B1B6803F007038B420BD242
:102E2C004F4A136823F007030B431360136803F036
:102E3C0007038B4240F08D80236813F0020F17D0EC
:102E4C0013F0040F04D0474A536843F4E063536013
:102E5C00236813F0080F04D0424A536843F46053BC
:102E6C005360404A536823F0F003A1680B4353604E
:102E7C00236813F0010F31D06368012B20D0022B93
:102E8C0025D0384A126812F0020F64D035494A68CE
:102E9C0022F0030213434B60FFF766FD0646314BED
:102EAC005B6803F00C036268B3EB820F16D0FFF77C
:102EBC005BFD801B41F288339842F0D9032045E03A
:102ECC00284A126812F4003FE0D101203EE0254A66
:102EDC00126812F0007FD9D1012037E0204B1B681B
:102EEC0003F00703AB420AD91D4A136823F007030A
:102EFC002B431360136803F00703AB422DD12368F7
:102F0C0013F0040F06D0174A536823F4E063E1680A
:102F1C000B435360236813F0080F07D0114A536812
:102F2C0023F46053216943EAC1035360FFF742FF66
:102F3C000C4B5B68C3F303130B4AD35CD8400B4BAD
:102F4C0018600B4B1868FFF7CBFC002070BD0120FC
:102F5C0070470120FAE70120F8E70120F6E700BFEF
:102F6C0000200240001002406C4E0008700000204F
:102F7C006C00002070B582B00446036813F0010F9A
:102F8C0039D0414BDB6913F0805F4DD13E4BDA6990
:102F9C0042F08052DA61DB6903F080530193019BAC
:102FAC0001231E46394B1B6813F4807F3FD0364BF0
:102FBC001B6A13F4407315D0626802F440729A4293
:102FCC0010D0314A136A23F4407031494FF0010C90
:102FDC00C1F840C44FF0000CC1F840C4106213F0AB
:102FEC00010F38D1284A136A23F4407361680B43EC
:102FFC001362002E40D1236813F0020F06D0224A30
:10300C00536823F44043A1680B435360236813F0C7
:10301C00100F36D01C4A536823F48003E1680B432D
:10302C005360002002B070BD00231E46BAE7174A59
:10303C00136843F480731360FFF796FC0546134B3B
:10304C001B6813F4807FB2D1FFF78EFC401B642801
:10305C00F5D90320E6E7FFF787FC05460A4B1B6A08
:10306C0013F0020FBED1FFF77FFC401B41F28833F7
:10307C009842F3D90320D5E7D36923F08053D36169
:10308C00B9E70020CEE700BF0010024000700040FE
:10309C000000424270B582B04FF0000EF446A4E03E
:1030AC00012B28D0022B03D1CB6803F1080E24E0AE
:1030BC001BBB8B68002B65D0012B5CD042614FF0A1
:1030CC00080E1AE0664DAB42F3D00CD8A5F580156E
:1030DC00AB42EED005F57025AB42EAD0A5F58015D4
:1030EC00AB42E6D009E05F4DAB42E2D005F580354E
:1030FC00AB42DED001E0D1F80CE0FF2C45D80646FF
:10310C004FEA8C0233680F25954023EA05030EFA2B
:10311C0002F2134333604B6813F0805F63D0524B61
:10312C009A6942F001029A619B6903F001030193D1
:10313C00019B4FEA9C02951C4C4B53F825600CF0FC
:10314C000305AD000F23AB4026EA0306484B98421B
:10315C0022D003F58063984263D003F580639842D4
:10316C0061D003F58063984214D0042315E0CB683A
:10317C0003F10C0EC1E702614FF0080EBDE74FF0F2
:10318C00000EBAE74FF0040EB7E7061DACF10802CB
:10319C009200B7E7032300E00023AB403343023235
:1031AC00324D45F822304B6813F4801F3DD0314A24
:1031BC009368234393604B6813F4001F3BD02D4A54
:1031CC00D3682343D3604B6813F4003F39D0294AAA
:1031DC005368234353604B6813F4803F37D0254A20
:1031EC001368234313600CF1010C0B6833FA0CF2D7
:1031FC0033D0012202FA0CF203EA020432EA03038E
:10320C00F1D14B68032BBAD07FF64AAF122BAED05C
:10321C003FF658AF112B7FF470AFCB6803F1040E5F
:10322C006BE70123B9E70223B7E7124A936823EA55
:10323C0004039360BFE70F4AD36823EA0403D36007
:10324C00C1E70C4A536823EA04035360C3E7094AF5
:10325C00136823EA04031360C5E702B070BD00BF16
:10326C00000022100000311000100240000001404C
:10327C0000080140000401400AB1016170470904D3
:10328C0001617047002808DB0901C9B200F16040F8
:10329C0000F5614080F80013704700F00F00090141
:1032AC00C9B2014B1954704714ED00E000B500F0A1
:1032BC000700A0F1030CBCF1040F07D8C0F1070EF6
:1032CC000430062806D84FF0000C03E04FF0040E33
:1032DC004FF0000C4FF0FF3303FA0EF021EA00011F
:1032EC0001FA0CF103FA0CF322EA030241EA0200A0
:1032FC0000BD0000074AD36823F4E0631B041B0CD9
:10330C00000200F4E060034343F0BF6343F4003376
:10331C00D360704700ED00E010B50446054BD8684B
:10332C00C0F30220FFF7C2FF01462046FFF7AAFFB9
:10333C0010BD00BF00ED00E0002807DB00F01F020D
:10334C00400901239340024A42F82030704700BFE5
:10335C0000E100E00138B0F1807F0BD24FF0E023A8
:10336C005861054AF02182F8231000209861072249
:10337C001A6170470120704700ED00E0704798B16A
:10338C0008B50346D0F8B40210B10020C3F8B4025B
:10339C0009B1C3F8B012012183F89C121A701846B7
:1033AC00FDF71AFA002008BD0220704719B1C0F8C9
:1033BC00B412002070470220704708B5FDF74EFA92
:1033CC00002008BD08B5D0F8B4322BB11B68984763
:1033DC0000B908BD0220FCE70220FAE708B5D0F8D6
:1033EC00B4325B689847002008BD38B5044600F538
:1033FC002A75284600F035F90123C4F89432B4F844
:10340C00AE32C4F8983294F8A81201F01F03012BC5
:10341C0008D0022B0BD07BB92946204600F0E4FAE9
:10342C00002038BD2946204600F017FBF8E7294656
:10343C00204600F042FBF3E701F080012046FDF747
:10344C0028FAEDE738B504460D4691BB1346D0F883
:10345C009422032A03D0052A24D0084633E0D0F85E
:10346C006011D0F8642191420DD9891AC0F860110D
:10347C008A4206D98AB21946204600F057FC2846E3
:10348C0021E092B2F7E7D0F8B4321B691BB190F887
:10349C009C22032A04D0204600F050FC284612E05F
:1034AC009847F8E70021C0F89412FDF7F2F9284686
:1034BC0009E0D0F8B4329B6933B190F89C22032A0E
:1034CC0004D19847002038BD0220FCE70220FAE71F
:1034DC0038B504460D46002953D11346D0F8942232
:1034EC00022A0CD0042A00D01AB980212046FDF7FC
:1034FC00D0F994F8A032012B3ED0284638BD026A90
:10350C00416A8A421BD8C269B2FBF1F301FB132357
:10351C002BB9914203D8D0F898329A421CD3D4F8E4
:10352C00B432DB681BB194F89C22032A21D0802191
:10353C002046FDF7AEF9204600F00BFCD9E7521AF5
:10354C00026292B2194600F0DAFB00231A461946C1
:10355C002046FDF7D4F9CCE70022114600F0CFFB52
:10356C000021C4F898120B460A462046FDF7C7F90D
:10357C00BFE720469847DAE7002384F8A0322846B4
:10358C00BCE7D0F8B4325B6933B190F89C22032AC3
:10359C0004D198470020B1E70220AFE70220ADE745
:1035AC0070B50446402300221146FDF75FF9012552
:1035BC00C4F858514026C4F8646133460022802177
:1035CC002046FDF753F9A561666284F89C520023EE
:1035DC00C4F894326360C4F8A432D4F8B8322BB176
:1035EC00D4F8B4325B68002120469847002070BDA7
:1035FC0001740020704790F89C3280F89D320423AF
:10360C0080F89C320020704790F89C32042B01D03B
:10361C000020704790F89D3280F89C32F8E708B58E
:10362C0090F89C32032B01D0002008BDD0F8B432A6
:10363C00DB69002BF8D09847F6E70346002002E040
:10364C000130C0B201331A78002AF9D1704708B59D
:10365C004B88012B00D008BDC0F8A43200F06EFBE3
:10366C00F9E70B7803704B7843708B78CA7803EBCF
:10367C00022343800B794A7903EB022383808B79F5
:10368C00CA7903EB0223C380704710B5044680212E
:10369C00FDF7FFF800212046FDF7FBF810BD30B513
:1036AC0083B005460C460023ADF806304A88130A51
:1036BC00032B3FD012D9062B00F09880072B40F03B
:1036CC00A480037C002B40F09D80D0F8B4321B6B9F
:1036DC000DF1060098470723437016E0012B0DD01F
:1036EC00022B40F09280037CDBB9D0F8B4329B6A99
:1036FC000DF1060098470223437006E0D0F8B03273
:10370C001B680DF10601007C9847BDF8062012B12C
:10371C00E388002B7ED1E388002B00F0858003B07A
:10372C0030BDD0F8B432DB6A0DF1060098470223A5
:10373C004370EAE7D2B2032A38D00ED8012A1DD042
:10374C00022A27D0002A4CD1D0F8B0325B6893B152
:10375C000DF10601007C9847D7E7042A32D0052AE0
:10376C003FD1D0F8B0329B69002B37D00DF1060158
:10377C00007C9847C9E7FFF788FFD0E7D0F8B03254
:10378C009B6823B10DF10601007C9847BDE7FFF75C
:10379C007CFFC4E7D0F8B032DB6823B10DF1060131
:1037AC00007C9847B1E7FFF770FFB8E7D0F8B0326C
:1037BC001B6923B10DF10601007C9847A5E7FFF7C3
:1037CC0064FFACE7D0F8B0325B6923B10DF10601B0
:1037DC00007C984799E7FFF758FFA0E7FFF755FFE4
:1037EC009DE721462846FFF750FF98E7037C33B945
:1037FC00D0F8B4325B6B0DF10600984785E7FFF704
:10380C0044FF8CE7FFF741FF89E721462846FFF785
:10381C003CFF84E79A4228BF1A46ADF806200146C1
:10382C00284600F05FFA76E7284600F087FA76E73C
:10383C0038B504468B8803BBCB88F3B94B887F2BF8
:10384C001BD803F07F031A4690F89C32032B0DD043
:10385C00154684F89E221146FDF741F8204600F0EB
:10386C006DFA35B1022384F89C3209E0FFF70DFFA5
:10387C0006E0012384F89C3202E02046FFF705FFA6
:10388C0038BD000038B5044608460D464B88D9B201
:10389C002D4A117001290FD894F89C22022A10D0BD
:1038AC00032A26D001462046FFF7EFFE264B197857
:1038BC002046FFF793FD03E001462046FFF7E5FEA7
:1038CC0038BD91B1DBB26360032384F89C3220468F
:1038DC00FFF778FD022803D0204600F02FFAEFE71F
:1038EC0029462046FFF7D1FEEAE7204600F026FAEB
:1038FC00E6E799B1DBB261688B4220D0C9B22046B1
:10390C00FFF76CFD104B197861602046FFF75AFDEC
:10391C0002280FD0204600F011FAD1E7022284F8D9
:10392C009C22DBB263602046FFF758FD204600F076
:10393C0005FAC5E729462046FFF7A7FEC0E7204653
:10394C0000F0FCF9BCE700BF0015002008B5CB88DF
:10395C00012B0AD190F89C32022B09D9032B11D1DF
:10396C000122011D00F0BEF901E0FFF78EFE08BD3B
:10397C005BB23BB10146002341F8083F012200F045
:10398C00B1F9F4E7FFF781FEF1E708B590F89C3246
:10399C00013B022B12D8CB88022B0CD10123C36024
:1039AC00D0F8A4320BB10323C360022200F10C0146
:1039BC0000F098F908BDFFF768FEFBE7FFF765FE1E
:1039CC00F8E708B590F89C32013B022B09D84B88DC
:1039DC00012B00D008BD0023C0F8A43200F0AEF9D2
:1039EC00F8E7FFF752FEF5E708B50B7803F0600334
:1039FC00202B05D0402B03D043B1FFF746FE03E04C
:103A0C00D0F8B4329B689847002008BD4B78052B42
:103A1C0011D007D8012B1AD0032B15D0D3B9FFF72F
:103A2C00B4FFF1E7082B0CD0092B07D0062B11D1D2
:103A3C00FFF735FEE8E7FFF7FBFEE5E7FFF722FFB0
:103A4C00E2E7FFF783FFDFE7FFF701FEDCE7FFF7B5
:103A5C00B8FFD9E7FFF719FED6E738B505460C468F
:103A6C000B7803F06003202B06D0402B04D01BB145
:103A7C00FFF70BFE002038BD95F89C32013B022B62
:103A8C0016D82379012B0ED8D5F8B4329B68214671
:103A9C0028469847E388002BECD10028EAD1284629
:103AAC0000F04CF9E6E721462846FFF7EEFDE1E78A
:103ABC0021462846FFF7E9FDDCE770B505468B8803
:103ACC000C7804F06004202C07D0DAB2402C04D01F
:103ADC005CB1FFF7DAFD002405E0D5F8B4329B6841
:103AEC00284698470024204670BD202C0BD04878DF
:103AFC000646012837D003280BD000285CD0284676
:103B0C00FFF7C3FDEFE7D0F8B4329B689847044643
:103B1C00E9E795F89C32022B05D0032B13D02846ED
:103B2C00FFF7B3FDDFE70AB1802A03D12846FFF780
:103B3C00ACFDD8E711462846FCF7ABFE80212846A1
:103B4C00FCF7A7FECFE74B8823B91AB1802A01D026
:103B5C00CB881BB1284600F0F1F8C4E71146284683
:103B6C00FCF797FEF6E795F89C02022805D003288F
:103B7C0013D02846FFF789FDB5E70AB1802A03D197
:103B8C002846FFF782FDAEE711462846FCF781FE7A
:103B9C0080212846FCF77DFEA5E749880029A2D1A3
:103BAC0013F07F0F03D1284600F0C8F89BE71146AD
:103BBC002846FCF776FEF6E795F89C02022806D01C
:103BCC00032829D02846FFF760FD34468BE70AB15D
:103BDC00802A13D113F0800F15D103F07F0303EB70
:103BEC008303990001F5A8712944043100230B606B
:103BFC000222284600F076F8344674E72846FFF790
:103C0C0044FD34466FE703F07F0303EB8303990015
:103C1C00103129440431E9E75CB2002C1FDB03F0BE
:103C2C000F0000EB800005EB8000D0F8580120B3AA
:103C3C00002C27DB03F07F0303EB83039C0004F5CC
:103C4C00A8742C4404340AB1802A24D100232360A4
:103C5C0002222146284600F045F8344643E703F09B
:103C6C000F0000EB800005EB800080690028DFD19D
:103C7C002846FFF70AFD344635E72846FFF705FDD1
:103C8C00344630E703F07F0303EB83039C001034CE
:103C9C002C440434D7E711462846FCF70AFE10B131
:103CAC0001232360D4E72060D2E7D0B170B50D4674
:103CBC0016460446FFF7C1FC431C5B009BB23380E5
:103CCC002B7003236B70022307E001345A1CD2B211
:103CDC00E8540233DBB20021A95420780028F4D137
:103CEC0070BD704708B513460222C0F89422C36118
:103CFC0003620A460021FCF7FAFD002008BD08B556
:103D0C0013460A460021FCF7F2FD002008BD08B559
:103D1C0013460322C0F89422C0F85C31C0F860311D
:103D2C000A460021FCF7EBFD002008BD08B5134640
:103D3C000A460021FCF7E3FD002008BD08B504236A
:103D4C00C0F8943200231A461946FCF7D0FD002027
:103D5C0008BD08B50523C0F8943200231A4619464D
:103D6C00FCF7CDFD002008BD10B5D0F8B842D0F856
:103D7C00BC325BB194F80002FF2807D09B6894F822
:103D8C00012221469847FF2384F80032002010BD01
:103D9C004323038000487047B8000020432303806E
:103DAC0000487047FC000020432303800048704704
:103DBC00740000200A23038000487047780100201B
:103DCC0038B50446D0F8B852FCF7A1FDC5F80C0282
:103DDC00D4F8B8324BB1D4F8BC32DB6805F50371BA
:103DEC00D5F804029847002038BD0220FCE7D0F833
:103DFC00B822D0F8C0C202B308B501EB810300EBC6
:103E0C008303DB6953B101EB810E0CEBCE0CDCF8B8
:103E1C0020C0B3FBFCFE0CFB1E3323B10023C2F805
:103E2C001432002008BD01EB810300EB8303002258
:103E3C00DA611346FCF75BFDF3E70220704770B5BF
:103E4C0082B006460C46D0F8B81200238DF8073025
:103E5C00ADF80430237813F0600526D0202D56D110
:103E6C00E288D2B113F0800F0CD0D0F8BC329B6832
:103E7C000D4660789847E28829463046FFF732FFB6
:103E8C00002548E0637881F80032A37981F801328B
:103E9C00E288FFF73CFF00253DE0D0F8BC329B6880
:103EAC00214660789847002535E063780A2B11D0BD
:103EBC000B2B1ED01D462BBB90F89C32032B04D031
:103ECC002146FFF7E2FB022525E0022201A9FFF7BC
:103EDC0009FF20E090F89C32032B04D02146FFF719
:103EEC00D4FB022517E001220DF10701FFF7FAFEC2
:103EFC0011E090F89C32032B0DD02146FFF7C5FB47
:103F0C00022508E02146FFF7C0FB022503E021460D
:103F1C00FFF7BBFB0225284602B070BD38B504463E
:103F2C008121FCF7AEFC0025E56201212046FCF75F
:103F3C00A8FCC4F86C5182212046FCF7A2FC256435
:103F4C00D4F8B8324BB1D4F8BC325B689847D4F88B
:103F5C00B802FCF7E7FCC4F8B852002038BD70B5C5
:103F6C000446037CABBB4FF4007302228121FCF7A7
:103F7C007DFC0125E5624FF40073022229462046A0
:103F8C00FCF774FCC4F86C510823032282212046F0
:103F9C00FCF76CFC012323644FF40770FCF7BEFCA8
:103FAC000546C4F8B80268B3D4F8BC321B6898470D
:103FBC000023C5F81432C5F81832267CCEB94FF45C
:103FCC000073D5F8042201212046FCF798FC3046FA
:103FDC0070BD402302228121FCF748FC0125E562DB
:103FEC004023022229462046FCF740FCC4F86C51C1
:103FFC00CAE74023D5F8042201212046FCF77FFCB8
:10400C000026E4E70126E2E719B1C0F8BC12002053
:10401C00704702207047D0F8B832C3F80812C3F8C2
:10402C00102200207047D0F8B832C3F804120020D8
:10403C007047D0F8B8229AB108B5D2F814320BB147
:10404C00012008BD0123C2F81432D2F810320363E8
:10405C009BB2D2F808228121FCF749FC0020F0E742
:10406C0002207047D0F8B82292B108B5037C43B94E
:10407C004FF40073D2F804220121FCF740FC00201D
:10408C0008BD4023D2F804220121FCF738FCF6E7E6
:10409C000220704708B503460D4A0E490E480068C9
:1040AC0040B10D4800680344521A934208D80A4A9A
:1040BC00136008BD0848DFF824C0C0F800C0F0E762
:1040CC0000F0FAF90C2303604FF0FF30F1E700BF6A
:1040DC0000500020000400000415002050160020A1
:1040EC00036AD0F820C02CF0010CC0F820C0D0F826
:1040FC0018C02CF0F00C4CEA021223F00A030B430C
:10410C00826103627047036AD0F820C02CF0100C57
:10411C00C0F820C0D0F818C02CF4704C4CEA023215
:10412C0023F0A00343EA01138261036270478368A2
:10413C0023F070030B4343F00703836070470000C8
:10414C0090F83D30012B22D1022380F83D300368DA
:10415C00114A934210D0B3F1804F0DD0A2F5943296
:10416C00934209D002F58062934205D01A6842F05E
:10417C0001021A60002070479A6802F00702062AB2
:10418C0007D01A6842F001021A6000207047012023
:10419C0070470020704700BF002C014003681F4A85
:1041AC0090420AD0B0F1804F07D0A2F594329042E1
:1041BC0003D002F58062904203D123F070034A6869
:1041CC001343164A90420AD0B0F1804F07D0A2F5A3
:1041DC009432904203D002F58062904203D123F4D2
:1041EC004073CA68134323F080034A691343036086
:1041FC008B68C3620B688362084B98420AD0012318
:10420C004361036913F0010F03D0036923F0010329
:10421C00036170470B690363F1E700BF002C014099
:10422C0040B310B5044690F83D30F3B1022384F846
:10423C003D30214651F8040BFFF7B0FF012384F801
:10424C00463084F83E3084F83F3084F8403084F8AF
:10425C00413084F8423084F8433084F8443084F898
:10426C00453084F83D30002010BD80F83C30FCF720
:10427C00F5F8DBE701207047D0F808C02CF47F4C30
:10428C0042EA03220A4342EA0C028260704790F829
:10429C003C30012B78D010B50446012380F83C301B
:1042AC00022380F83D300268936823F47F4323F0A7
:1042BC00770393600B68602B4CD023D8402B54D0E1
:1042CC0011D8202B03D00AD80BB1102B05D11946CD
:1042DC002068FFF72CFF002028E0012026E0302B7F
:1042EC00F5D0012022E0502B0AD1CA684968006839
:1042FC00FFF7F6FE50212068FFF719FF002015E0AC
:10430C00012013E0B3F5805F3AD0B3F5005F14D011
:10431C00702B37D1CB684A6889680068FFF7ACFF0F
:10432C002268936843F0770393600020012384F89C
:10433C003D30002384F83C3010BDCB684A68896856
:10434C000068FFF799FF2268936843F480439360F9
:10435C000020EBE7CA6849680068FFF7D4FE6021CB
:10436C002068FFF7E4FE0020E0E7CA6849680068AF
:10437C00FFF7B6FE40212068FFF7D9FE0020D5E7F5
:10438C000020D3E70120D1E70220704790F83C20B1
:10439C00012A2DD000B50346012280F83C200222D0
:1043AC0080F83D2002685068D2F808E020F0700CCC
:1043BC00086840EA0C0050601A680E4882420AD025
:1043CC00B2F1804F07D0A0F59430824203D000F5B3
:1043DC008060824205D12EF0800E496841EA0E01C0
:1043EC009160012283F83D20002083F83C0000BD41
:1043FC0002207047002C0140FEF7C0FF0B480C490F
:10440C000C4A002302E0D458C4500433C4188C4224
:10441C00F9D3094A094C002301E013600432A2428B
:10442C00FBD300F04FF8FBF79DFF70470000002016
:10443C00D4010020B84E0008D401002050160020F2
:10444C00FEE700000CB430B5154B0C1E1D689DB07A
:10445C0008DA8B234FF0FF302B601DB0BDE83040E5
:10446C0002B070474FF000031B9318BF0123E31AEF
:10447C00049307930B4B029006900593284621ABAF
:10448C00209A02A9019300F0A5F9431CBCBF8B2311
:10449C002B60002CE1D00022029B1A70DDE700BFDC
:1044AC00840100200802FFFF03460244934200D11E
:1044BC00704703F8011BF9E7014B1868704700BF00
:1044CC008401002070B500260C4C0D4B1D1BB6EB67
:1044DC00A50F09D1002600F083FC0A4C0A4B1D1BCA
:1044EC00B6EBA50F05D170BD54F8043B98470136C7
:1044FC00EDE754F8043B98470136F1E7B04E00085D
:10450C00B04E0008B04E0008B44E0008704770471B
:10451C000A44914200F1FF3300D1704710B511F8F5
:10452C00014B914203F8014FF9D110BD37B5002969
:10453C0042D051F8043C0C1F002BB8BFE41801907A
:10454C0000F0DCF81D4A0198136833B963601460FD
:10455C0003B0BDE8304000F0D7B8A34208D92568B5
:10456C0061198B4201BF19685B6849192160EDE73D
:10457C001A465B680BB1A342FAD911685518A542CB
:10458C000BD1246821445418A3421160E0D11C685B
:10459C005B680C4414605360DAE702D90C230360A7
:1045AC00D6E7256861198B4201BF19685B68491908
:1045BC00216063605460CBE703B030BD4C16002023
:1045CC0070B50F4C0E462168054611B900F0B4FBCE
:1045DC0020603146284600F0AFFB431C03D14FF05E
:1045EC00FF34204670BDC41C24F00304A042F8D054
:1045FC00211A284600F0A0FB0130F2D1EFE700BFF2
:10460C00481600202DE9F843CD1C25F0030508358C
:10461C000C2D38BF0C25002D064601DBA94204D910
:10462C000C2333600020BDE8F883334F00F066F8AC
:10463C003B681C463CBB29463046FFF7C1FF431C78
:10464C00044656D13C68A046B8F1000F40D1002C6E
:10465C0049D023684146304604EB030900F06CFB5B
:10466C00814540D1216830466D1A2946FFF7A8FFD5
:10467C00013038D023682B4423603B685A685ABBFE
:10468C00C7F800800EE02268521B1ED40B2A16D9E4
:10469C006119A342256018BF5960636808BF39606F
:1046AC0062514B60304600F02FF804F10B00231DD3
:1046BC0020F00700C21A1CBF1B1AA350B3E7626894
:1046CC00A3420CBF3A605A60ECE723466468B1E73A
:1046DC004446D8F80480B7E71A465B68A342FBD17E
:1046EC0000235360DEE70C233046336000F00CF8F7
:1046FC0098E70560D6E700BF4C1600200148FFF78D
:10470C0005BF00BF441600200148FFF700BF00BFE3
:10471C00441600202DE9F0471F468E688246BE42A3
:10472C000C469046334653D8B1F90C0010F4906FF8
:10473C002BD065692368096905EB4505A3EB0109D5
:10474C0005EBD5757B1C6D104B44AB422A4684BFE0
:10475C001D462A46430527D511465046FFF752FF02
:10476C00064658B34A462169FFF7D2FEA38923F4C3
:10477C00906343F08003A38126614E4426603B4640
:10478C003E466561A5EB0905A5601F463A464146C4
:10479C00206800F0B7FA0020A3689B1BA360236875
:1047AC003B442360BDE8F087504600F0E3FA064630
:1047BC000028E1D150462169FFF7B8FE0C23CAF856
:1047CC000030A3894FF0FF3043F04003A381E9E7A9
:1047DC003E46DBE72DE9F0471F468B8906461B0654
:1047EC000D4614469CB010D50B6973B94021FFF7E8
:1047FC0009FF2860286130B90C2333604FF0FF307B
:10480C001CB0BDE8F08740236B6100230993202383
:10481C008DF8293030234FF001080397644F8DF841
:10482C002A3023461A7899461AB1252A03F1010336
:10483C00F8D1B9EB040A0BD0534622462946304630
:10484C00FFF768FF013000F0A380099A52440992E7
:10485C0099F80030002B00F09B8000224FF0FF33C2
:10486C00CDE9053209F10109049207928DF8532024
:10487C001A924C46052214F8011B4D4800F06CFAB4
:10488C00049AD0B9D00644BF20238DF853301107B9
:10489C0044BF2B238DF8533099F800302A2B13D0BA
:1048AC004B4600204FF00A0C07991A781C46303AF8
:1048BC00092A4AD9A8B1079113E0C01B08FA00F0E5
:1048CC001043A1460490D4E7039B191D1B68039168
:1048DC00002BBBBF5B4242F0020207930793B8BFA9
:1048EC00049223782E2B0AD163782A2B32D1039B86
:1048FC0002341A1D1B68039243EAE3730593DFF835
:10490C00B49003224846217800F026FA38B14022B0
:10491C00049BA0EB090082401343013404932178DB
:10492C00062225488DF8281000F016FA002835D0FC
:10493C00224818BB039B073323F007030833039368
:10494C00099B0134034409936BE701200CFB012103
:10495C000133AAE700234FF00A0C18460593611C9B
:10496C000A780C46303A092A03D9002BC7D0059097
:10497C00C5E701230CFB00200131F1E703AB0093E9
:10498C002A4630460E4B04A9AFF30080421CD7D107
:10499C00AB895B063FF532AF099831E703AB009367
:1049AC002A463046064B04A900F082F8EEE700BF19
:1049BC007C4E0008824E0008864E00080000000065
:1049CC00214700082DE9F047914698468A680B6903
:1049DC0007469342B8BF1346C9F8003091F84320FC
:1049EC000C46089E12B10133C9F8003023689906B1
:1049FC0042BFD9F800300233C9F80030256815F0F1
:104A0C00060507D104F1190AE368D9F800209B1AAE
:104A1C00AB4229DC94F843302268003B18BF0123D9
:104A2C0092062ED44146384604F14302B047013079
:104A3C0021D02368A16803F00603042B12BF0025C4
:104A4C00E568D9F80030226904BFED1A25EAE5754E
:104A5C008B1A2B449142C8BF1D464FF000091A34E3
:104A6C004D451AD1002008E00123524641463846F4
:104A7C00B047013003D14FF0FF30BDE8F08701356E
:104A8C00C2E73020E11881F843005A1C94F8451015
:104A9C002244023382F84310C4E7012322464146E4
:104AAC003846B0470130E6D009F10109D8E70000DB
:104ABC002DE9F04398460B7E85B0782B17460646B9
:104ACC000C460C9A09D8622B01F1430108D8002B33
:104ADC0000F0DC80582B00F0BD8004F1420539E079
:104AEC00A3F163001528F8D801A555F820F000BFF4
:104AFC00554B0008694B0008E74A0008E74A0008D4
:104B0C00E74A0008E74A0008694B0008E74A000832
:104B1C00E74A0008E74A0008E74A0008794C000811
:104B2C00954B0008274C0008E74A0008E74A0008A4
:104B3C00A14C0008E74A0008954B0008E74A00081A
:104B4C00E74A00082F4C0008136804F14205191DB0
:104B5C001B68116084F842300123A8E013682568B3
:104B6C00181D1060280601D51B6803E06A06FBD5EA
:104B7C00B3F90030002B03DA2D225B4284F843207A
:104B8C000A22DFF878C113E02568106815F0800F51
:104B9C0050F8043B02D16D0648BF9BB21060227ED8
:104BAC00DFF858C16F2A5DD10822002084F8430039
:104BBC006568002DA56005DB20681D4320F004000E
:104BCC00206051D00D46B3FBF2F002FB103E1CF8F6
:104BDC000EE09A4205F801ED0346F4D9082A0BD1F0
:104BEC002368DA0708D5236962689A42DEBF30234E
:104BFC0005F8013C05F1FF35491B21613B46214677
:104C0C003046CDF8008003AAFFF7DCFE013053D10B
:104C1C004FF0FF3005B0BDE8F083236843F020036C
:104C2C0023607823DFF8D8C084F8453020681568F5
:104C3C0010F0800F55F8043B03D110F0400F18BF53
:104C4C009BB21560C50744BF40F02000206023B123
:104C5C001022AAE7DFF8A4C0E6E7226822F02002BF
:104C6C002260F5E70A22A0E70D46B7E71368D4F8EF
:104C7C0000C01D1D60691CF0800F15601B6801D001
:104C8C00186003E01CF0400FFAD0188000230D468A
:104C9C002361B3E71368191D11601D6800212846B4
:104CAC00626800F059F808B1401B606063682361CA
:104CBC00002384F84330A1E72A463946304623695D
:104CCC00C0470130A4D023689B0714D4E068039B31
:104CDC009842B8BF18469DE701233946304604F187
:104CEC001902C047013093D00135E36803995B1A70
:104CFC00AB42F1DCEAE70025F7E700BF8D4E000878
:104D0C009E4E0008884210B501EB020402D9844281
:104D1C00234607D8431EA14207D011F8012B03F8F4
:104D2C00012FF8E70244824200D110BD13F8011D97
:104D3C0002F8011DF7E7000038B50023054C0546C5
:104D4C0008462360FFF7A6F9431C02D1236803B180
:104D5C002B6038BD40160020034610B5C9B2024482
:104D6C00934201D1002004E01846047801338C42B0
:104D7C00F6D110BD2DE9F041074615460C4621B978
:104D8C001146BDE8F041FFF73DBC2AB9FFF7CEFB59
:104D9C002C462046BDE8F08100F01AF88542064604
:104DAC0002D8B5EB500FF4D829463846FFF72AFC49
:104DBC00804608B94446ECE7B5422A46214628BF4E
:104DCC003246FFF7A5FB21463846FFF7AFFBF1E76C
:104DDC0051F8043C181F002BBCBF0B58C01870476F
:104DEC00F8B500BFF8BC08BC9E467047F8B500BFCC
:084DFC00F8BC08BC9E4670479C
:104E04005B25735D3A25640D0A00000053544D334D
:104E140032205669727475616C20436F6D506F72E5
:104E24007400000053544D6963726F656C6563745C
:104E3400726F6E696373000043444320436F6E6670
:104E44006967000043444320496E74657266616378
:104E540065000000010200000203040506070809BA
:104E64000A0B0C0D0E0F10100000000000000000D3
:104E74000102030406070809232D302B2000686C67
:104E84004C00656667454647003031323334353669
:104E940037383941424344454600303132333435A2
:0C4EA400363738396162636465660000CF
:044EB0007501000880
:044EB4004D010008A4
:104EB8001A030000000000000000000000000000CD
:104EC80000000000000000000000000004030904C6
:104ED800120100020202004083044057000201024E
:104EE80003010000E9040008F5040008B5050008FE
:104EF800910500087D050008D1050008F5050008A2
:104F080095060008190600081D0600087106000825
:104F180000960000000008000100000010000000DA
:104F280000127A0009074300020104C03209040094
:104F380000010202010005240010010524010001FE
:104F48000424020205240600010705820308001054
:104F580009040100020A00000007050102400000E0
:104F6800070581024000000009024300020100C059
:104F780032090400000102020100052400100105A5
:104F88002401000104240202052406000107058209
:104F98000308001009040100020A000000070501C7
:104FA800024000000705810240000000090243009A
:104FB800020100C0320904000001020201000524B8
:104FC8000010010524010001042402020524060042
:104FD800010705820308001009040100020A000005
:104FE8000007050102000200070581020002000017
:104FF8006B3F0008293F00084B3E000800000000F6
:10500800753D0008FB3D0008CD3D0008000000008C
:105018000000000000000000A93D00089D3D0008B8
:10502800B53D0008C13D00080A0600020000004026
:105038000100000088010020000000000815002081
:1050480070150020D81500200000000000000000A6
:105058000000000000000000000000000000000048
:105068000000000000000000000000000000000038
:105078000000000000000000000000000000000028
:045088000000000024
:0400000508004405A6
:00000001FF
